{
  "contractName": "HexColour",
  "abi": [
    {
      "anonymous": false,
      "inputs": [
        {
          "indexed": true,
          "internalType": "address",
          "name": "owner",
          "type": "address"
        },
        {
          "indexed": true,
          "internalType": "address",
          "name": "approved",
          "type": "address"
        },
        {
          "indexed": true,
          "internalType": "uint256",
          "name": "tokenId",
          "type": "uint256"
        }
      ],
      "name": "Approval",
      "type": "event"
    },
    {
      "anonymous": false,
      "inputs": [
        {
          "indexed": true,
          "internalType": "address",
          "name": "owner",
          "type": "address"
        },
        {
          "indexed": true,
          "internalType": "address",
          "name": "operator",
          "type": "address"
        },
        {
          "indexed": false,
          "internalType": "bool",
          "name": "approved",
          "type": "bool"
        }
      ],
      "name": "ApprovalForAll",
      "type": "event"
    },
    {
      "anonymous": false,
      "inputs": [
        {
          "indexed": false,
          "internalType": "uint256",
          "name": "id",
          "type": "uint256"
        },
        {
          "indexed": false,
          "internalType": "string",
          "name": "hexCode",
          "type": "string"
        }
      ],
      "name": "ColourMinted",
      "type": "event"
    },
    {
      "anonymous": false,
      "inputs": [
        {
          "indexed": true,
          "internalType": "address",
          "name": "previousOwner",
          "type": "address"
        },
        {
          "indexed": true,
          "internalType": "address",
          "name": "newOwner",
          "type": "address"
        }
      ],
      "name": "OwnershipTransferred",
      "type": "event"
    },
    {
      "anonymous": false,
      "inputs": [
        {
          "indexed": true,
          "internalType": "address",
          "name": "from",
          "type": "address"
        },
        {
          "indexed": true,
          "internalType": "address",
          "name": "to",
          "type": "address"
        },
        {
          "indexed": true,
          "internalType": "uint256",
          "name": "tokenId",
          "type": "uint256"
        }
      ],
      "name": "Transfer",
      "type": "event"
    },
    {
      "inputs": [
        {
          "internalType": "address",
          "name": "to",
          "type": "address"
        },
        {
          "internalType": "uint256",
          "name": "tokenId",
          "type": "uint256"
        }
      ],
      "name": "approve",
      "outputs": [],
      "stateMutability": "nonpayable",
      "type": "function"
    },
    {
      "inputs": [
        {
          "internalType": "address",
          "name": "owner",
          "type": "address"
        }
      ],
      "name": "balanceOf",
      "outputs": [
        {
          "internalType": "uint256",
          "name": "",
          "type": "uint256"
        }
      ],
      "stateMutability": "view",
      "type": "function"
    },
    {
      "inputs": [
        {
          "internalType": "uint256",
          "name": "",
          "type": "uint256"
        }
      ],
      "name": "colours",
      "outputs": [
        {
          "internalType": "uint256",
          "name": "id",
          "type": "uint256"
        },
        {
          "internalType": "string",
          "name": "hexCode",
          "type": "string"
        }
      ],
      "stateMutability": "view",
      "type": "function"
    },
    {
      "inputs": [
        {
          "internalType": "uint256",
          "name": "tokenId",
          "type": "uint256"
        }
      ],
      "name": "getApproved",
      "outputs": [
        {
          "internalType": "address",
          "name": "",
          "type": "address"
        }
      ],
      "stateMutability": "view",
      "type": "function"
    },
    {
      "inputs": [
        {
          "internalType": "address",
          "name": "owner",
          "type": "address"
        },
        {
          "internalType": "address",
          "name": "operator",
          "type": "address"
        }
      ],
      "name": "isApprovedForAll",
      "outputs": [
        {
          "internalType": "bool",
          "name": "",
          "type": "bool"
        }
      ],
      "stateMutability": "view",
      "type": "function"
    },
    {
      "inputs": [],
      "name": "name",
      "outputs": [
        {
          "internalType": "string",
          "name": "",
          "type": "string"
        }
      ],
      "stateMutability": "view",
      "type": "function"
    },
    {
      "inputs": [],
      "name": "owner",
      "outputs": [
        {
          "internalType": "address",
          "name": "",
          "type": "address"
        }
      ],
      "stateMutability": "view",
      "type": "function"
    },
    {
      "inputs": [
        {
          "internalType": "uint256",
          "name": "tokenId",
          "type": "uint256"
        }
      ],
      "name": "ownerOf",
      "outputs": [
        {
          "internalType": "address",
          "name": "",
          "type": "address"
        }
      ],
      "stateMutability": "view",
      "type": "function"
    },
    {
      "inputs": [],
      "name": "renounceOwnership",
      "outputs": [],
      "stateMutability": "nonpayable",
      "type": "function"
    },
    {
      "inputs": [
        {
          "internalType": "address",
          "name": "from",
          "type": "address"
        },
        {
          "internalType": "address",
          "name": "to",
          "type": "address"
        },
        {
          "internalType": "uint256",
          "name": "tokenId",
          "type": "uint256"
        }
      ],
      "name": "safeTransferFrom",
      "outputs": [],
      "stateMutability": "nonpayable",
      "type": "function"
    },
    {
      "inputs": [
        {
          "internalType": "address",
          "name": "from",
          "type": "address"
        },
        {
          "internalType": "address",
          "name": "to",
          "type": "address"
        },
        {
          "internalType": "uint256",
          "name": "tokenId",
          "type": "uint256"
        },
        {
          "internalType": "bytes",
          "name": "_data",
          "type": "bytes"
        }
      ],
      "name": "safeTransferFrom",
      "outputs": [],
      "stateMutability": "nonpayable",
      "type": "function"
    },
    {
      "inputs": [
        {
          "internalType": "address",
          "name": "operator",
          "type": "address"
        },
        {
          "internalType": "bool",
          "name": "approved",
          "type": "bool"
        }
      ],
      "name": "setApprovalForAll",
      "outputs": [],
      "stateMutability": "nonpayable",
      "type": "function"
    },
    {
      "inputs": [
        {
          "internalType": "bytes4",
          "name": "interfaceId",
          "type": "bytes4"
        }
      ],
      "name": "supportsInterface",
      "outputs": [
        {
          "internalType": "bool",
          "name": "",
          "type": "bool"
        }
      ],
      "stateMutability": "view",
      "type": "function"
    },
    {
      "inputs": [],
      "name": "symbol",
      "outputs": [
        {
          "internalType": "string",
          "name": "",
          "type": "string"
        }
      ],
      "stateMutability": "view",
      "type": "function"
    },
    {
      "inputs": [
        {
          "internalType": "uint256",
          "name": "tokenId",
          "type": "uint256"
        }
      ],
      "name": "tokenURI",
      "outputs": [
        {
          "internalType": "string",
          "name": "",
          "type": "string"
        }
      ],
      "stateMutability": "view",
      "type": "function"
    },
    {
      "inputs": [
        {
          "internalType": "address",
          "name": "from",
          "type": "address"
        },
        {
          "internalType": "address",
          "name": "to",
          "type": "address"
        },
        {
          "internalType": "uint256",
          "name": "tokenId",
          "type": "uint256"
        }
      ],
      "name": "transferFrom",
      "outputs": [],
      "stateMutability": "nonpayable",
      "type": "function"
    },
    {
      "inputs": [
        {
          "internalType": "address",
          "name": "newOwner",
          "type": "address"
        }
      ],
      "name": "transferOwnership",
      "outputs": [],
      "stateMutability": "nonpayable",
      "type": "function"
    },
    {
      "inputs": [],
      "name": "initialize",
      "outputs": [],
      "stateMutability": "nonpayable",
      "type": "function"
    },
    {
      "inputs": [
        {
          "internalType": "string",
          "name": "hexCode",
          "type": "string"
        }
      ],
      "name": "doesColourExist",
      "outputs": [
        {
          "internalType": "bool",
          "name": "",
          "type": "bool"
        }
      ],
      "stateMutability": "view",
      "type": "function"
    },
    {
      "inputs": [
        {
          "internalType": "string",
          "name": "hexCode",
          "type": "string"
        }
      ],
      "name": "mint",
      "outputs": [],
      "stateMutability": "nonpayable",
      "type": "function"
    }
  ],
  "bytecode": "0x608060405234801561001057600080fd5b5061372a806100206000396000f3fe608060405234801561001057600080fd5b506004361061012c5760003560e01c80638129fc1c116100ad578063c76ab94011610071578063c76ab9401461031b578063c87b56dd1461034c578063d85d3d271461037c578063e985e9c514610398578063f2fde38b146103c85761012c565b80638129fc1c1461029d5780638da5cb5b146102a757806395d89b41146102c5578063a22cb465146102e3578063b88d4fde146102ff5761012c565b806323b872dd116100f457806323b872dd146101fb57806342842e0e146102175780636352211e1461023357806370a0823114610263578063715018a6146102935761012c565b806301ffc9a71461013157806306fdde0314610161578063081812fc1461017f578063095ea7b3146101af5780631564514b146101cb575b600080fd5b61014b6004803603810190610146919061218b565b6103e4565b60405161015891906121d3565b60405180910390f35b6101696104c6565b6040516101769190612287565b60405180910390f35b610199600480360381019061019491906122df565b610558565b6040516101a6919061234d565b60405180910390f35b6101c960048036038101906101c49190612394565b6105dd565b005b6101e560048036038101906101e09190612509565b6106f5565b6040516101f291906121d3565b60405180910390f35b61021560048036038101906102109190612552565b6107b5565b005b610231600480360381019061022c9190612552565b610815565b005b61024d600480360381019061024891906122df565b610835565b60405161025a919061234d565b60405180910390f35b61027d600480360381019061027891906125a5565b6108e7565b60405161028a91906125e1565b60405180910390f35b61029b61099f565b005b6102a5610a27565b005b6102af610bf2565b6040516102bc919061234d565b60405180910390f35b6102cd610c1c565b6040516102da9190612287565b60405180910390f35b6102fd60048036038101906102f89190612628565b610cae565b005b61031960048036038101906103149190612709565b610cc4565b005b610335600480360381019061033091906122df565b610d26565b60405161034392919061278c565b60405180910390f35b610366600480360381019061036191906122df565b610de2565b6040516103739190612287565b60405180910390f35b61039660048036038101906103919190612509565b610e89565b005b6103b260048036038101906103ad91906127bc565b610faa565b6040516103bf91906121d3565b60405180910390f35b6103e260048036038101906103dd91906125a5565b61103e565b005b60007f80ac58cd000000000000000000000000000000000000000000000000000000007bffffffffffffffffffffffffffffffffffffffffffffffffffffffff1916827bffffffffffffffffffffffffffffffffffffffffffffffffffffffff191614806104af57507f5b5e139f000000000000000000000000000000000000000000000000000000007bffffffffffffffffffffffffffffffffffffffffffffffffffffffff1916827bffffffffffffffffffffffffffffffffffffffffffffffffffffffff1916145b806104bf57506104be82611136565b5b9050919050565b6060606580546104d59061282b565b80601f01602080910402602001604051908101604052809291908181526020018280546105019061282b565b801561054e5780601f106105235761010080835404028352916020019161054e565b820191906000526020600020905b81548152906001019060200180831161053157829003601f168201915b5050505050905090565b6000610563826111a0565b6105a2576040517f08c379a0000000000000000000000000000000000000000000000000000000008152600401610599906128cf565b60405180910390fd5b6069600083815260200190815260200160002060009054906101000a900473ffffffffffffffffffffffffffffffffffffffff169050919050565b60006105e882610835565b90508073ffffffffffffffffffffffffffffffffffffffff168373ffffffffffffffffffffffffffffffffffffffff161415610659576040517f08c379a000000000000000000000000000000000000000000000000000000000815260040161065090612961565b60405180910390fd5b8073ffffffffffffffffffffffffffffffffffffffff1661067861120c565b73ffffffffffffffffffffffffffffffffffffffff1614806106a757506106a6816106a161120c565b610faa565b5b6106e6576040517f08c379a00000000000000000000000000000000000000000000000000000000081526004016106dd906129f3565b60405180910390fd5b6106f08383611214565b505050565b60008060cb8054905011156107ab5760005b60cb805490508110156107a957826040516020016107259190612a4f565b6040516020818303038152906040528051906020012060cb828154811061074f5761074e612a66565b5b90600052602060002090600202016001016040516020016107709190612b29565b6040516020818303038152906040528051906020012014156107965760019150506107b0565b80806107a190612b6f565b915050610707565b505b600090505b919050565b6107c66107c061120c565b826112cd565b610805576040517f08c379a00000000000000000000000000000000000000000000000000000000081526004016107fc90612c2a565b60405180910390fd5b6108108383836113ab565b505050565b61083083838360405180602001604052806000815250610cc4565b505050565b6000806067600084815260200190815260200160002060009054906101000a900473ffffffffffffffffffffffffffffffffffffffff169050600073ffffffffffffffffffffffffffffffffffffffff168173ffffffffffffffffffffffffffffffffffffffff1614156108de576040517f08c379a00000000000000000000000000000000000000000000000000000000081526004016108d590612cbc565b60405180910390fd5b80915050919050565b60008073ffffffffffffffffffffffffffffffffffffffff168273ffffffffffffffffffffffffffffffffffffffff161415610958576040517f08c379a000000000000000000000000000000000000000000000000000000000815260040161094f90612d4e565b60405180910390fd5b606860008373ffffffffffffffffffffffffffffffffffffffff1673ffffffffffffffffffffffffffffffffffffffff168152602001908152602001600020549050919050565b6109a761120c565b73ffffffffffffffffffffffffffffffffffffffff166109c5610bf2565b73ffffffffffffffffffffffffffffffffffffffff1614610a1b576040517f08c379a0000000000000000000000000000000000000000000000000000000008152600401610a1290612dba565b60405180910390fd5b610a256000611607565b565b600060019054906101000a900460ff16610a4f5760008054906101000a900460ff1615610a58565b610a576116cd565b5b610a97576040517f08c379a0000000000000000000000000000000000000000000000000000000008152600401610a8e90612e4c565b60405180910390fd5b60008060019054906101000a900460ff161590508015610ae7576001600060016101000a81548160ff02191690831515021790555060016000806101000a81548160ff0219169083151502179055505b610b5b6040518060400160405280600981526020017f486578436f6c6f757200000000000000000000000000000000000000000000008152506040518060400160405280600481526020017f48455843000000000000000000000000000000000000000000000000000000008152506116de565b610b6361174b565b60c960009054906101000a900460ff1615610bb3576040517f08c379a0000000000000000000000000000000000000000000000000000000008152600401610baa90612ede565b60405180910390fd5b600160c960006101000a81548160ff0219169083151502179055508015610bef5760008060016101000a81548160ff0219169083151502179055505b50565b6000609760009054906101000a900473ffffffffffffffffffffffffffffffffffffffff16905090565b606060668054610c2b9061282b565b80601f0160208091040260200160405190810160405280929190818152602001828054610c579061282b565b8015610ca45780601f10610c7957610100808354040283529160200191610ca4565b820191906000526020600020905b815481529060010190602001808311610c8757829003601f168201915b5050505050905090565b610cc0610cb961120c565b83836117ac565b5050565b610cd5610ccf61120c565b836112cd565b610d14576040517f08c379a0000000000000000000000000000000000000000000000000000000008152600401610d0b90612c2a565b60405180910390fd5b610d2084848484611919565b50505050565b60cb8181548110610d3657600080fd5b9060005260206000209060020201600091509050806000015490806001018054610d5f9061282b565b80601f0160208091040260200160405190810160405280929190818152602001828054610d8b9061282b565b8015610dd85780601f10610dad57610100808354040283529160200191610dd8565b820191906000526020600020905b815481529060010190602001808311610dbb57829003601f168201915b5050505050905082565b6060610ded826111a0565b610e2c576040517f08c379a0000000000000000000000000000000000000000000000000000000008152600401610e2390612f70565b60405180910390fd5b6000610e36611975565b90506000815111610e565760405180602001604052806000815250610e81565b80610e608461198c565b604051602001610e71929190612f90565b6040516020818303038152906040525b915050919050565b80610e93816106f5565b15610e9d57600080fd5b6006825114610ee1576040517f08c379a0000000000000000000000000000000000000000000000000000000008152600401610ed890613026565b60405180910390fd5b610eeb60ca611aed565b6000610ef760ca611b03565b905060cb6040518060400160405280838152602001858152509080600181540180825580915050600190039060005260206000209060020201600090919091909150600082015181600001556020820151816001019080519060200190610f5f92919061207c565b505050610f6c3382611b11565b7f9f5bf299828afe11d410193be89b49a950a25d07c1bb5fa5594027727c23e7b18184604051610f9d92919061278c565b60405180910390a1505050565b6000606a60008473ffffffffffffffffffffffffffffffffffffffff1673ffffffffffffffffffffffffffffffffffffffff16815260200190815260200160002060008373ffffffffffffffffffffffffffffffffffffffff1673ffffffffffffffffffffffffffffffffffffffff16815260200190815260200160002060009054906101000a900460ff16905092915050565b61104661120c565b73ffffffffffffffffffffffffffffffffffffffff16611064610bf2565b73ffffffffffffffffffffffffffffffffffffffff16146110ba576040517f08c379a00000000000000000000000000000000000000000000000000000000081526004016110b190612dba565b60405180910390fd5b600073ffffffffffffffffffffffffffffffffffffffff168173ffffffffffffffffffffffffffffffffffffffff16141561112a576040517f08c379a0000000000000000000000000000000000000000000000000000000008152600401611121906130b8565b60405180910390fd5b61113381611607565b50565b60007f01ffc9a7000000000000000000000000000000000000000000000000000000007bffffffffffffffffffffffffffffffffffffffffffffffffffffffff1916827bffffffffffffffffffffffffffffffffffffffffffffffffffffffff1916149050919050565b60008073ffffffffffffffffffffffffffffffffffffffff166067600084815260200190815260200160002060009054906101000a900473ffffffffffffffffffffffffffffffffffffffff1673ffffffffffffffffffffffffffffffffffffffff1614159050919050565b600033905090565b816069600083815260200190815260200160002060006101000a81548173ffffffffffffffffffffffffffffffffffffffff021916908373ffffffffffffffffffffffffffffffffffffffff160217905550808273ffffffffffffffffffffffffffffffffffffffff1661128783610835565b73ffffffffffffffffffffffffffffffffffffffff167f8c5be1e5ebec7d5bd14f71427d1e84f3dd0314c0f7b2291e5b200ac8c7c3b92560405160405180910390a45050565b60006112d8826111a0565b611317576040517f08c379a000000000000000000000000000000000000000000000000000000000815260040161130e9061314a565b60405180910390fd5b600061132283610835565b90508073ffffffffffffffffffffffffffffffffffffffff168473ffffffffffffffffffffffffffffffffffffffff16148061139157508373ffffffffffffffffffffffffffffffffffffffff1661137984610558565b73ffffffffffffffffffffffffffffffffffffffff16145b806113a257506113a18185610faa565b5b91505092915050565b8273ffffffffffffffffffffffffffffffffffffffff166113cb82610835565b73ffffffffffffffffffffffffffffffffffffffff1614611421576040517f08c379a0000000000000000000000000000000000000000000000000000000008152600401611418906131dc565b60405180910390fd5b600073ffffffffffffffffffffffffffffffffffffffff168273ffffffffffffffffffffffffffffffffffffffff161415611491576040517f08c379a00000000000000000000000000000000000000000000000000000000081526004016114889061326e565b60405180910390fd5b61149c838383611b2f565b6114a7600082611214565b6001606860008573ffffffffffffffffffffffffffffffffffffffff1673ffffffffffffffffffffffffffffffffffffffff16815260200190815260200160002060008282546114f7919061328e565b925050819055506001606860008473ffffffffffffffffffffffffffffffffffffffff1673ffffffffffffffffffffffffffffffffffffffff168152602001908152602001600020600082825461154e91906132c2565b92505081905550816067600083815260200190815260200160002060006101000a81548173ffffffffffffffffffffffffffffffffffffffff021916908373ffffffffffffffffffffffffffffffffffffffff160217905550808273ffffffffffffffffffffffffffffffffffffffff168473ffffffffffffffffffffffffffffffffffffffff167fddf252ad1be2c89b69c2b068fc378daa952ba7f163c4a11628f55a4df523b3ef60405160405180910390a4505050565b6000609760009054906101000a900473ffffffffffffffffffffffffffffffffffffffff16905081609760006101000a81548173ffffffffffffffffffffffffffffffffffffffff021916908373ffffffffffffffffffffffffffffffffffffffff1602179055508173ffffffffffffffffffffffffffffffffffffffff168173ffffffffffffffffffffffffffffffffffffffff167f8be0079c531659141344cd1fd0a4f28419497f9722a3daafe3b4186f6b6457e060405160405180910390a35050565b60006116d830611b34565b15905090565b600060019054906101000a900460ff1661172d576040517f08c379a00000000000000000000000000000000000000000000000000000000081526004016117249061338a565b60405180910390fd5b611735611b47565b61173d611b98565b6117478282611be9565b5050565b600060019054906101000a900460ff1661179a576040517f08c379a00000000000000000000000000000000000000000000000000000000081526004016117919061338a565b60405180910390fd5b6117a2611b47565b6117aa611c6a565b565b8173ffffffffffffffffffffffffffffffffffffffff168373ffffffffffffffffffffffffffffffffffffffff16141561181b576040517f08c379a0000000000000000000000000000000000000000000000000000000008152600401611812906133f6565b60405180910390fd5b80606a60008573ffffffffffffffffffffffffffffffffffffffff1673ffffffffffffffffffffffffffffffffffffffff16815260200190815260200160002060008473ffffffffffffffffffffffffffffffffffffffff1673ffffffffffffffffffffffffffffffffffffffff16815260200190815260200160002060006101000a81548160ff0219169083151502179055508173ffffffffffffffffffffffffffffffffffffffff168373ffffffffffffffffffffffffffffffffffffffff167f17307eab39ab6107e8899845ad3d59bd9653f200f220920489ca2b5937696c318360405161190c91906121d3565b60405180910390a3505050565b6119248484846113ab565b61193084848484611ccb565b61196f576040517f08c379a000000000000000000000000000000000000000000000000000000000815260040161196690613488565b60405180910390fd5b50505050565b606060405180602001604052806000815250905090565b606060008214156119d4576040518060400160405280600181526020017f30000000000000000000000000000000000000000000000000000000000000008152509050611ae8565b600082905060005b60008214611a065780806119ef90612b6f565b915050600a826119ff91906134d7565b91506119dc565b60008167ffffffffffffffff811115611a2257611a216123de565b5b6040519080825280601f01601f191660200182016040528015611a545781602001600182028036833780820191505090505b5090505b60008514611ae157600182611a6d919061328e565b9150600a85611a7c9190613508565b6030611a8891906132c2565b60f81b818381518110611a9e57611a9d612a66565b5b60200101907effffffffffffffffffffffffffffffffffffffffffffffffffffffffffffff1916908160001a905350600a85611ada91906134d7565b9450611a58565b8093505050505b919050565b6001816000016000828254019250508190555050565b600081600001549050919050565b611b2b828260405180602001604052806000815250611e53565b5050565b505050565b600080823b905060008111915050919050565b600060019054906101000a900460ff16611b96576040517f08c379a0000000000000000000000000000000000000000000000000000000008152600401611b8d9061338a565b60405180910390fd5b565b600060019054906101000a900460ff16611be7576040517f08c379a0000000000000000000000000000000000000000000000000000000008152600401611bde9061338a565b60405180910390fd5b565b600060019054906101000a900460ff16611c38576040517f08c379a0000000000000000000000000000000000000000000000000000000008152600401611c2f9061338a565b60405180910390fd5b8160659080519060200190611c4e92919061207c565b508060669080519060200190611c6592919061207c565b505050565b600060019054906101000a900460ff16611cb9576040517f08c379a0000000000000000000000000000000000000000000000000000000008152600401611cb09061338a565b60405180910390fd5b611cc9611cc461120c565b611607565b565b6000611cec8473ffffffffffffffffffffffffffffffffffffffff16611b34565b15611e46578373ffffffffffffffffffffffffffffffffffffffff1663150b7a02611d1561120c565b8786866040518563ffffffff1660e01b8152600401611d37949392919061358e565b6020604051808303816000875af1925050508015611d7357506040513d601f19601f82011682018060405250810190611d7091906135ef565b60015b611df6573d8060008114611da3576040519150601f19603f3d011682016040523d82523d6000602084013e611da8565b606091505b50600081511415611dee576040517f08c379a0000000000000000000000000000000000000000000000000000000008152600401611de590613488565b60405180910390fd5b805181602001fd5b63150b7a0260e01b7bffffffffffffffffffffffffffffffffffffffffffffffffffffffff1916817bffffffffffffffffffffffffffffffffffffffffffffffffffffffff191614915050611e4b565b600190505b949350505050565b611e5d8383611eae565b611e6a6000848484611ccb565b611ea9576040517f08c379a0000000000000000000000000000000000000000000000000000000008152600401611ea090613488565b60405180910390fd5b505050565b600073ffffffffffffffffffffffffffffffffffffffff168273ffffffffffffffffffffffffffffffffffffffff161415611f1e576040517f08c379a0000000000000000000000000000000000000000000000000000000008152600401611f1590613668565b60405180910390fd5b611f27816111a0565b15611f67576040517f08c379a0000000000000000000000000000000000000000000000000000000008152600401611f5e906136d4565b60405180910390fd5b611f7360008383611b2f565b6001606860008473ffffffffffffffffffffffffffffffffffffffff1673ffffffffffffffffffffffffffffffffffffffff1681526020019081526020016000206000828254611fc391906132c2565b92505081905550816067600083815260200190815260200160002060006101000a81548173ffffffffffffffffffffffffffffffffffffffff021916908373ffffffffffffffffffffffffffffffffffffffff160217905550808273ffffffffffffffffffffffffffffffffffffffff16600073ffffffffffffffffffffffffffffffffffffffff167fddf252ad1be2c89b69c2b068fc378daa952ba7f163c4a11628f55a4df523b3ef60405160405180910390a45050565b8280546120889061282b565b90600052602060002090601f0160209004810192826120aa57600085556120f1565b82601f106120c357805160ff19168380011785556120f1565b828001600101855582156120f1579182015b828111156120f05782518255916020019190600101906120d5565b5b5090506120fe9190612102565b5090565b5b8082111561211b576000816000905550600101612103565b5090565b6000604051905090565b600080fd5b600080fd5b60007fffffffff0000000000000000000000000000000000000000000000000000000082169050919050565b61216881612133565b811461217357600080fd5b50565b6000813590506121858161215f565b92915050565b6000602082840312156121a1576121a0612129565b5b60006121af84828501612176565b91505092915050565b60008115159050919050565b6121cd816121b8565b82525050565b60006020820190506121e860008301846121c4565b92915050565b600081519050919050565b600082825260208201905092915050565b60005b8381101561222857808201518184015260208101905061220d565b83811115612237576000848401525b50505050565b6000601f19601f8301169050919050565b6000612259826121ee565b61226381856121f9565b935061227381856020860161220a565b61227c8161223d565b840191505092915050565b600060208201905081810360008301526122a1818461224e565b905092915050565b6000819050919050565b6122bc816122a9565b81146122c757600080fd5b50565b6000813590506122d9816122b3565b92915050565b6000602082840312156122f5576122f4612129565b5b6000612303848285016122ca565b91505092915050565b600073ffffffffffffffffffffffffffffffffffffffff82169050919050565b60006123378261230c565b9050919050565b6123478161232c565b82525050565b6000602082019050612362600083018461233e565b92915050565b6123718161232c565b811461237c57600080fd5b50565b60008135905061238e81612368565b92915050565b600080604083850312156123ab576123aa612129565b5b60006123b98582860161237f565b92505060206123ca858286016122ca565b9150509250929050565b600080fd5b600080fd5b7f4e487b7100000000000000000000000000000000000000000000000000000000600052604160045260246000fd5b6124168261223d565b810181811067ffffffffffffffff82111715612435576124346123de565b5b80604052505050565b600061244861211f565b9050612454828261240d565b919050565b600067ffffffffffffffff821115612474576124736123de565b5b61247d8261223d565b9050602081019050919050565b82818337600083830152505050565b60006124ac6124a784612459565b61243e565b9050828152602081018484840111156124c8576124c76123d9565b5b6124d384828561248a565b509392505050565b600082601f8301126124f0576124ef6123d4565b5b8135612500848260208601612499565b91505092915050565b60006020828403121561251f5761251e612129565b5b600082013567ffffffffffffffff81111561253d5761253c61212e565b5b612549848285016124db565b91505092915050565b60008060006060848603121561256b5761256a612129565b5b60006125798682870161237f565b935050602061258a8682870161237f565b925050604061259b868287016122ca565b9150509250925092565b6000602082840312156125bb576125ba612129565b5b60006125c98482850161237f565b91505092915050565b6125db816122a9565b82525050565b60006020820190506125f660008301846125d2565b92915050565b612605816121b8565b811461261057600080fd5b50565b600081359050612622816125fc565b92915050565b6000806040838503121561263f5761263e612129565b5b600061264d8582860161237f565b925050602061265e85828601612613565b9150509250929050565b600067ffffffffffffffff821115612683576126826123de565b5b61268c8261223d565b9050602081019050919050565b60006126ac6126a784612668565b61243e565b9050828152602081018484840111156126c8576126c76123d9565b5b6126d384828561248a565b509392505050565b600082601f8301126126f0576126ef6123d4565b5b8135612700848260208601612699565b91505092915050565b6000806000806080858703121561272357612722612129565b5b60006127318782880161237f565b94505060206127428782880161237f565b9350506040612753878288016122ca565b925050606085013567ffffffffffffffff8111156127745761277361212e565b5b612780878288016126db565b91505092959194509250565b60006040820190506127a160008301856125d2565b81810360208301526127b3818461224e565b90509392505050565b600080604083850312156127d3576127d2612129565b5b60006127e18582860161237f565b92505060206127f28582860161237f565b9150509250929050565b7f4e487b7100000000000000000000000000000000000000000000000000000000600052602260045260246000fd5b6000600282049050600182168061284357607f821691505b60208210811415612857576128566127fc565b5b50919050565b7f4552433732313a20617070726f76656420717565727920666f72206e6f6e657860008201527f697374656e7420746f6b656e0000000000000000000000000000000000000000602082015250565b60006128b9602c836121f9565b91506128c48261285d565b604082019050919050565b600060208201905081810360008301526128e8816128ac565b9050919050565b7f4552433732313a20617070726f76616c20746f2063757272656e74206f776e6560008201527f7200000000000000000000000000000000000000000000000000000000000000602082015250565b600061294b6021836121f9565b9150612956826128ef565b604082019050919050565b6000602082019050818103600083015261297a8161293e565b9050919050565b7f4552433732313a20617070726f76652063616c6c6572206973206e6f74206f7760008201527f6e6572206e6f7220617070726f76656420666f7220616c6c0000000000000000602082015250565b60006129dd6038836121f9565b91506129e882612981565b604082019050919050565b60006020820190508181036000830152612a0c816129d0565b9050919050565b600081905092915050565b6000612a29826121ee565b612a338185612a13565b9350612a4381856020860161220a565b80840191505092915050565b6000612a5b8284612a1e565b915081905092915050565b7f4e487b7100000000000000000000000000000000000000000000000000000000600052603260045260246000fd5b60008190508160005260206000209050919050565b60008154612ab78161282b565b612ac18186612a13565b94506001821660008114612adc5760018114612aed57612b20565b60ff19831686528186019350612b20565b612af685612a95565b60005b83811015612b1857815481890152600182019150602081019050612af9565b838801955050505b50505092915050565b6000612b358284612aaa565b915081905092915050565b7f4e487b7100000000000000000000000000000000000000000000000000000000600052601160045260246000fd5b6000612b7a826122a9565b91507fffffffffffffffffffffffffffffffffffffffffffffffffffffffffffffffff821415612bad57612bac612b40565b5b600182019050919050565b7f4552433732313a207472616e736665722063616c6c6572206973206e6f74206f60008201527f776e6572206e6f7220617070726f766564000000000000000000000000000000602082015250565b6000612c146031836121f9565b9150612c1f82612bb8565b604082019050919050565b60006020820190508181036000830152612c4381612c07565b9050919050565b7f4552433732313a206f776e657220717565727920666f72206e6f6e657869737460008201527f656e7420746f6b656e0000000000000000000000000000000000000000000000602082015250565b6000612ca66029836121f9565b9150612cb182612c4a565b604082019050919050565b60006020820190508181036000830152612cd581612c99565b9050919050565b7f4552433732313a2062616c616e636520717565727920666f7220746865207a6560008201527f726f206164647265737300000000000000000000000000000000000000000000602082015250565b6000612d38602a836121f9565b9150612d4382612cdc565b604082019050919050565b60006020820190508181036000830152612d6781612d2b565b9050919050565b7f4f776e61626c653a2063616c6c6572206973206e6f7420746865206f776e6572600082015250565b6000612da46020836121f9565b9150612daf82612d6e565b602082019050919050565b60006020820190508181036000830152612dd381612d97565b9050919050565b7f496e697469616c697a61626c653a20636f6e747261637420697320616c72656160008201527f647920696e697469616c697a6564000000000000000000000000000000000000602082015250565b6000612e36602e836121f9565b9150612e4182612dda565b604082019050919050565b60006020820190508181036000830152612e6581612e29565b9050919050565b7f436f6e747261637420696e7374616e63652068617320616c726561647920626560008201527f656e20696e697469616c697a6564000000000000000000000000000000000000602082015250565b6000612ec8602e836121f9565b9150612ed382612e6c565b604082019050919050565b60006020820190508181036000830152612ef781612ebb565b9050919050565b7f4552433732314d657461646174613a2055524920717565727920666f72206e6f60008201527f6e6578697374656e7420746f6b656e0000000000000000000000000000000000602082015250565b6000612f5a602f836121f9565b9150612f6582612efe565b604082019050919050565b60006020820190508181036000830152612f8981612f4d565b9050919050565b6000612f9c8285612a1e565b9150612fa88284612a1e565b91508190509392505050565b7f5468652068657820636f6c6f7572206d7573742062652036206368617261637460008201527f65727320696e206c656e6774682e000000000000000000000000000000000000602082015250565b6000613010602e836121f9565b915061301b82612fb4565b604082019050919050565b6000602082019050818103600083015261303f81613003565b9050919050565b7f4f776e61626c653a206e6577206f776e657220697320746865207a65726f206160008201527f6464726573730000000000000000000000000000000000000000000000000000602082015250565b60006130a26026836121f9565b91506130ad82613046565b604082019050919050565b600060208201905081810360008301526130d181613095565b9050919050565b7f4552433732313a206f70657261746f7220717565727920666f72206e6f6e657860008201527f697374656e7420746f6b656e0000000000000000000000000000000000000000602082015250565b6000613134602c836121f9565b915061313f826130d8565b604082019050919050565b6000602082019050818103600083015261316381613127565b9050919050565b7f4552433732313a207472616e73666572206f6620746f6b656e2074686174206960008201527f73206e6f74206f776e0000000000000000000000000000000000000000000000602082015250565b60006131c66029836121f9565b91506131d18261316a565b604082019050919050565b600060208201905081810360008301526131f5816131b9565b9050919050565b7f4552433732313a207472616e7366657220746f20746865207a65726f2061646460008201527f7265737300000000000000000000000000000000000000000000000000000000602082015250565b60006132586024836121f9565b9150613263826131fc565b604082019050919050565b600060208201905081810360008301526132878161324b565b9050919050565b6000613299826122a9565b91506132a4836122a9565b9250828210156132b7576132b6612b40565b5b828203905092915050565b60006132cd826122a9565b91506132d8836122a9565b9250827fffffffffffffffffffffffffffffffffffffffffffffffffffffffffffffffff0382111561330d5761330c612b40565b5b828201905092915050565b7f496e697469616c697a61626c653a20636f6e7472616374206973206e6f74206960008201527f6e697469616c697a696e67000000000000000000000000000000000000000000602082015250565b6000613374602b836121f9565b915061337f82613318565b604082019050919050565b600060208201905081810360008301526133a381613367565b9050919050565b7f4552433732313a20617070726f766520746f2063616c6c657200000000000000600082015250565b60006133e06019836121f9565b91506133eb826133aa565b602082019050919050565b6000602082019050818103600083015261340f816133d3565b9050919050565b7f4552433732313a207472616e7366657220746f206e6f6e20455243373231526560008201527f63656976657220696d706c656d656e7465720000000000000000000000000000602082015250565b60006134726032836121f9565b915061347d82613416565b604082019050919050565b600060208201905081810360008301526134a181613465565b9050919050565b7f4e487b7100000000000000000000000000000000000000000000000000000000600052601260045260246000fd5b60006134e2826122a9565b91506134ed836122a9565b9250826134fd576134fc6134a8565b5b828204905092915050565b6000613513826122a9565b915061351e836122a9565b92508261352e5761352d6134a8565b5b828206905092915050565b600081519050919050565b600082825260208201905092915050565b600061356082613539565b61356a8185613544565b935061357a81856020860161220a565b6135838161223d565b840191505092915050565b60006080820190506135a3600083018761233e565b6135b0602083018661233e565b6135bd60408301856125d2565b81810360608301526135cf8184613555565b905095945050505050565b6000815190506135e98161215f565b92915050565b60006020828403121561360557613604612129565b5b6000613613848285016135da565b91505092915050565b7f4552433732313a206d696e7420746f20746865207a65726f2061646472657373600082015250565b60006136526020836121f9565b915061365d8261361c565b602082019050919050565b6000602082019050818103600083015261368181613645565b9050919050565b7f4552433732313a20746f6b656e20616c7265616479206d696e74656400000000600082015250565b60006136be601c836121f9565b91506136c982613688565b602082019050919050565b600060208201905081810360008301526136ed816136b1565b905091905056fea26469706673582212203c6550a7d0317a5c254a6cc4ffd340cf6bcfbcda7a8d97f7da0c3989cd45d40564736f6c634300080b0033",
  "immutableReferences": {},
  "source": "// SPDX-License-Identifier: MIT\npragma solidity ^0.8.11;\n\nimport \"@openzeppelin/contracts-upgradeable/token/ERC721/ERC721Upgradeable.sol\";\nimport \"@openzeppelin/contracts-upgradeable/access/OwnableUpgradeable.sol\";\nimport \"@openzeppelin/contracts/utils/Counters.sol\";\n\ncontract HexColour is ERC721Upgradeable, OwnableUpgradeable {\n  using Counters for Counters.Counter;\n\n  bool private initialized;\n\n  struct Colour {\n    uint id;\n    string hexCode;\n  } \n  \n  Counters.Counter private _idCounter;\n  Colour[] public colours;\n\n  event ColourMinted(uint id, string hexCode);\n\n  // Constructor for upgradeable contracts\n  function initialize() public initializer {\n    __ERC721_init(\"HexColour\", \"HEXC\");\n    __Ownable_init();\n    require(!initialized, \"Contract instance has already been initialized\");\n    initialized = true;\n  }\n\n  modifier onlyIfColourDoesntExist(string memory hexCode) {\n    require(!doesColourExist(hexCode));\n    _;\n  }\n\n  function doesColourExist(string memory hexCode) public view returns (bool) {\n    if (colours.length > 0) {\n      for (uint i = 0; i < colours.length; i++) {\n        if (keccak256(abi.encodePacked(colours[i].hexCode)) == keccak256(abi.encodePacked(hexCode))) {\n          return true;\n        }\n      }\n    }\n\n    return false;\n  }\n\n  function mint(string memory hexCode) public onlyIfColourDoesntExist(hexCode) {\n    require(bytes(hexCode).length == 6, \"The hex colour must be 6 characters in length.\");\n    \n    _idCounter.increment();\n    uint id = _idCounter.current();\n    colours.push(Colour(id, hexCode));\n    _safeMint(msg.sender, id);\n    emit ColourMinted(id, hexCode);\n  }\n}\n",
  "sourcePath": "/workspaces/crypto-colours/blockchain/contracts/HexColour.sol",
  "compiler": {
    "name": "solc",
    "version": "0.8.11+commit.d7f03943.Emscripten.clang"
  },
  "schemaVersion": "3.4.4",
  "updatedAt": "2022-01-10T12:38:23.958Z",
  "devdoc": {
    "kind": "dev",
    "methods": {
      "approve(address,uint256)": {
        "details": "See {IERC721-approve}."
      },
      "balanceOf(address)": {
        "details": "See {IERC721-balanceOf}."
      },
      "getApproved(uint256)": {
        "details": "See {IERC721-getApproved}."
      },
      "isApprovedForAll(address,address)": {
        "details": "See {IERC721-isApprovedForAll}."
      },
      "name()": {
        "details": "See {IERC721Metadata-name}."
      },
      "owner()": {
        "details": "Returns the address of the current owner."
      },
      "ownerOf(uint256)": {
        "details": "See {IERC721-ownerOf}."
      },
      "renounceOwnership()": {
        "details": "Leaves the contract without owner. It will not be possible to call `onlyOwner` functions anymore. Can only be called by the current owner. NOTE: Renouncing ownership will leave the contract without an owner, thereby removing any functionality that is only available to the owner."
      },
      "safeTransferFrom(address,address,uint256)": {
        "details": "See {IERC721-safeTransferFrom}."
      },
      "safeTransferFrom(address,address,uint256,bytes)": {
        "details": "See {IERC721-safeTransferFrom}."
      },
      "setApprovalForAll(address,bool)": {
        "details": "See {IERC721-setApprovalForAll}."
      },
      "supportsInterface(bytes4)": {
        "details": "See {IERC165-supportsInterface}."
      },
      "symbol()": {
        "details": "See {IERC721Metadata-symbol}."
      },
      "tokenURI(uint256)": {
        "details": "See {IERC721Metadata-tokenURI}."
      },
      "transferFrom(address,address,uint256)": {
        "details": "See {IERC721-transferFrom}."
      },
      "transferOwnership(address)": {
        "details": "Transfers ownership of the contract to a new account (`newOwner`). Can only be called by the current owner."
      }
    },
    "version": 1
  },
  "userdoc": {
    "kind": "user",
    "methods": {},
    "version": 1
  }
}