{
  "contractName": "NFTMarketPlace",
  "abi": [
    {
      "anonymous": false,
      "inputs": [
        {
          "indexed": true,
          "internalType": "uint256",
          "name": "itemId",
          "type": "uint256"
        },
        {
          "indexed": true,
          "internalType": "address",
          "name": "nftContractAddress",
          "type": "address"
        },
        {
          "indexed": true,
          "internalType": "uint256",
          "name": "tokenId",
          "type": "uint256"
        },
        {
          "indexed": false,
          "internalType": "address",
          "name": "seller",
          "type": "address"
        },
        {
          "indexed": false,
          "internalType": "address",
          "name": "owner",
          "type": "address"
        },
        {
          "indexed": false,
          "internalType": "uint256",
          "name": "price",
          "type": "uint256"
        },
        {
          "indexed": false,
          "internalType": "bool",
          "name": "sold",
          "type": "bool"
        }
      ],
      "name": "MarketItemCreated",
      "type": "event"
    },
    {
      "anonymous": false,
      "inputs": [
        {
          "indexed": true,
          "internalType": "uint256",
          "name": "itemId",
          "type": "uint256"
        },
        {
          "indexed": true,
          "internalType": "address",
          "name": "nftContractAddress",
          "type": "address"
        },
        {
          "indexed": true,
          "internalType": "uint256",
          "name": "tokenId",
          "type": "uint256"
        },
        {
          "indexed": false,
          "internalType": "address",
          "name": "seller",
          "type": "address"
        },
        {
          "indexed": false,
          "internalType": "address",
          "name": "owner",
          "type": "address"
        },
        {
          "indexed": false,
          "internalType": "uint256",
          "name": "price",
          "type": "uint256"
        },
        {
          "indexed": false,
          "internalType": "bool",
          "name": "sold",
          "type": "bool"
        }
      ],
      "name": "MarketItemPurchased",
      "type": "event"
    },
    {
      "anonymous": false,
      "inputs": [
        {
          "indexed": true,
          "internalType": "uint256",
          "name": "itemId",
          "type": "uint256"
        },
        {
          "indexed": true,
          "internalType": "address",
          "name": "nftContractAddress",
          "type": "address"
        },
        {
          "indexed": true,
          "internalType": "uint256",
          "name": "tokenId",
          "type": "uint256"
        },
        {
          "indexed": false,
          "internalType": "address",
          "name": "seller",
          "type": "address"
        },
        {
          "indexed": false,
          "internalType": "address",
          "name": "owner",
          "type": "address"
        },
        {
          "indexed": false,
          "internalType": "uint256",
          "name": "price",
          "type": "uint256"
        },
        {
          "indexed": false,
          "internalType": "bool",
          "name": "sold",
          "type": "bool"
        }
      ],
      "name": "MarketItemRelisted",
      "type": "event"
    },
    {
      "anonymous": false,
      "inputs": [
        {
          "indexed": true,
          "internalType": "address",
          "name": "previousOwner",
          "type": "address"
        },
        {
          "indexed": true,
          "internalType": "address",
          "name": "newOwner",
          "type": "address"
        }
      ],
      "name": "OwnershipTransferred",
      "type": "event"
    },
    {
      "inputs": [],
      "name": "owner",
      "outputs": [
        {
          "internalType": "address",
          "name": "",
          "type": "address"
        }
      ],
      "stateMutability": "view",
      "type": "function"
    },
    {
      "inputs": [],
      "name": "renounceOwnership",
      "outputs": [],
      "stateMutability": "nonpayable",
      "type": "function"
    },
    {
      "inputs": [
        {
          "internalType": "address",
          "name": "newOwner",
          "type": "address"
        }
      ],
      "name": "transferOwnership",
      "outputs": [],
      "stateMutability": "nonpayable",
      "type": "function"
    },
    {
      "inputs": [],
      "name": "initialize",
      "outputs": [],
      "stateMutability": "nonpayable",
      "type": "function"
    },
    {
      "inputs": [
        {
          "internalType": "address",
          "name": "",
          "type": "address"
        },
        {
          "internalType": "address",
          "name": "",
          "type": "address"
        },
        {
          "internalType": "uint256",
          "name": "",
          "type": "uint256"
        },
        {
          "internalType": "bytes",
          "name": "",
          "type": "bytes"
        }
      ],
      "name": "onERC721Received",
      "outputs": [
        {
          "internalType": "bytes4",
          "name": "",
          "type": "bytes4"
        }
      ],
      "stateMutability": "nonpayable",
      "type": "function"
    },
    {
      "inputs": [
        {
          "internalType": "uint256",
          "name": "newListingFee",
          "type": "uint256"
        }
      ],
      "name": "updateListingFee",
      "outputs": [],
      "stateMutability": "nonpayable",
      "type": "function"
    },
    {
      "inputs": [],
      "name": "getListingFee",
      "outputs": [
        {
          "internalType": "uint256",
          "name": "",
          "type": "uint256"
        }
      ],
      "stateMutability": "view",
      "type": "function"
    },
    {
      "inputs": [
        {
          "internalType": "address",
          "name": "nftContractAddress",
          "type": "address"
        },
        {
          "internalType": "uint256",
          "name": "tokenId",
          "type": "uint256"
        },
        {
          "internalType": "uint256",
          "name": "price",
          "type": "uint256"
        }
      ],
      "name": "createMarketItem",
      "outputs": [],
      "stateMutability": "payable",
      "type": "function"
    },
    {
      "inputs": [
        {
          "internalType": "uint256",
          "name": "itemId",
          "type": "uint256"
        }
      ],
      "name": "purchaseMarketItem",
      "outputs": [],
      "stateMutability": "payable",
      "type": "function"
    },
    {
      "inputs": [
        {
          "internalType": "uint256",
          "name": "itemId",
          "type": "uint256"
        },
        {
          "internalType": "uint256",
          "name": "newPrice",
          "type": "uint256"
        }
      ],
      "name": "relistMarketItem",
      "outputs": [],
      "stateMutability": "payable",
      "type": "function"
    },
    {
      "inputs": [
        {
          "internalType": "uint256",
          "name": "itemId",
          "type": "uint256"
        }
      ],
      "name": "fetchMarketItem",
      "outputs": [
        {
          "components": [
            {
              "internalType": "uint256",
              "name": "itemId",
              "type": "uint256"
            },
            {
              "internalType": "address",
              "name": "nftContractAddress",
              "type": "address"
            },
            {
              "internalType": "uint256",
              "name": "tokenId",
              "type": "uint256"
            },
            {
              "internalType": "address payable",
              "name": "seller",
              "type": "address"
            },
            {
              "internalType": "address payable",
              "name": "owner",
              "type": "address"
            },
            {
              "internalType": "uint256",
              "name": "price",
              "type": "uint256"
            },
            {
              "internalType": "bool",
              "name": "sold",
              "type": "bool"
            }
          ],
          "internalType": "struct NFTMarketPlace.MarketItem",
          "name": "",
          "type": "tuple"
        }
      ],
      "stateMutability": "view",
      "type": "function"
    },
    {
      "inputs": [],
      "name": "fetchUnsoldMarketItems",
      "outputs": [
        {
          "components": [
            {
              "internalType": "uint256",
              "name": "itemId",
              "type": "uint256"
            },
            {
              "internalType": "address",
              "name": "nftContractAddress",
              "type": "address"
            },
            {
              "internalType": "uint256",
              "name": "tokenId",
              "type": "uint256"
            },
            {
              "internalType": "address payable",
              "name": "seller",
              "type": "address"
            },
            {
              "internalType": "address payable",
              "name": "owner",
              "type": "address"
            },
            {
              "internalType": "uint256",
              "name": "price",
              "type": "uint256"
            },
            {
              "internalType": "bool",
              "name": "sold",
              "type": "bool"
            }
          ],
          "internalType": "struct NFTMarketPlace.MarketItem[]",
          "name": "",
          "type": "tuple[]"
        }
      ],
      "stateMutability": "view",
      "type": "function"
    },
    {
      "inputs": [],
      "name": "fetchSoldMarketItems",
      "outputs": [
        {
          "components": [
            {
              "internalType": "uint256",
              "name": "itemId",
              "type": "uint256"
            },
            {
              "internalType": "address",
              "name": "nftContractAddress",
              "type": "address"
            },
            {
              "internalType": "uint256",
              "name": "tokenId",
              "type": "uint256"
            },
            {
              "internalType": "address payable",
              "name": "seller",
              "type": "address"
            },
            {
              "internalType": "address payable",
              "name": "owner",
              "type": "address"
            },
            {
              "internalType": "uint256",
              "name": "price",
              "type": "uint256"
            },
            {
              "internalType": "bool",
              "name": "sold",
              "type": "bool"
            }
          ],
          "internalType": "struct NFTMarketPlace.MarketItem[]",
          "name": "",
          "type": "tuple[]"
        }
      ],
      "stateMutability": "view",
      "type": "function"
    },
    {
      "inputs": [],
      "name": "fetchNFTsOfOwner",
      "outputs": [
        {
          "components": [
            {
              "internalType": "uint256",
              "name": "itemId",
              "type": "uint256"
            },
            {
              "internalType": "address",
              "name": "nftContractAddress",
              "type": "address"
            },
            {
              "internalType": "uint256",
              "name": "tokenId",
              "type": "uint256"
            },
            {
              "internalType": "address payable",
              "name": "seller",
              "type": "address"
            },
            {
              "internalType": "address payable",
              "name": "owner",
              "type": "address"
            },
            {
              "internalType": "uint256",
              "name": "price",
              "type": "uint256"
            },
            {
              "internalType": "bool",
              "name": "sold",
              "type": "bool"
            }
          ],
          "internalType": "struct NFTMarketPlace.MarketItem[]",
          "name": "",
          "type": "tuple[]"
        }
      ],
      "stateMutability": "view",
      "type": "function"
    },
    {
      "inputs": [],
      "name": "fetchItemsCreatedBySeller",
      "outputs": [
        {
          "components": [
            {
              "internalType": "uint256",
              "name": "itemId",
              "type": "uint256"
            },
            {
              "internalType": "address",
              "name": "nftContractAddress",
              "type": "address"
            },
            {
              "internalType": "uint256",
              "name": "tokenId",
              "type": "uint256"
            },
            {
              "internalType": "address payable",
              "name": "seller",
              "type": "address"
            },
            {
              "internalType": "address payable",
              "name": "owner",
              "type": "address"
            },
            {
              "internalType": "uint256",
              "name": "price",
              "type": "uint256"
            },
            {
              "internalType": "bool",
              "name": "sold",
              "type": "bool"
            }
          ],
          "internalType": "struct NFTMarketPlace.MarketItem[]",
          "name": "",
          "type": "tuple[]"
        }
      ],
      "stateMutability": "view",
      "type": "function"
    }
  ],
  "bytecode": "0x608060405234801561001057600080fd5b50613153806100206000396000f3fe6080604052600436106100e85760003560e01c80637628ff551161008a578063ae74d0b611610059578063ae74d0b614610295578063b8fe6abe146102c0578063f2fde38b146102eb578063f79d91ae14610314576100e8565b80637628ff551461020c5780638129fc1c146102375780638c77b5b71461024e5780638da5cb5b1461026a576100e8565b80633edbd14f116100c65780633edbd14f146101835780633f3977ae146101ae57806358eb2df5146101d9578063715018a6146101f5576100e8565b8063150b7a02146100ed578063196efe331461012a5780632a45b25014610146575b600080fd5b3480156100f957600080fd5b50610114600480360381019061010f919061247b565b61033d565b6040516101219190612539565b60405180910390f35b610144600480360381019061013f9190612554565b610351565b005b34801561015257600080fd5b5061016d60048036038101906101689190612594565b61066c565b60405161017a91906126a9565b60405180910390f35b34801561018f57600080fd5b50610198610864565b6040516101a59190612801565b60405180910390f35b3480156101ba57600080fd5b506101c3610b3c565b6040516101d09190612801565b60405180910390f35b6101f360048036038101906101ee9190612823565b610e7f565b005b34801561020157600080fd5b5061020a6111e2565b005b34801561021857600080fd5b5061022161126a565b60405161022e9190612801565b60405180910390f35b34801561024357600080fd5b5061024c6115ad565b005b61026860048036038101906102639190612594565b61171a565b005b34801561027657600080fd5b5061027f611a3f565b60405161028c9190612885565b60405180910390f35b3480156102a157600080fd5b506102aa611a69565b6040516102b79190612801565b60405180910390f35b3480156102cc57600080fd5b506102d5611daa565b6040516102e291906128af565b60405180910390f35b3480156102f757600080fd5b50610312600480360381019061030d91906128ca565b611db4565b005b34801561032057600080fd5b5061033b60048036038101906103369190612594565b611eac565b005b600063150b7a0260e01b9050949350505050565b8060008111610395576040517f08c379a000000000000000000000000000000000000000000000000000000000815260040161038c90612954565b60405180910390fd5b60995434146103d9576040517f08c379a00000000000000000000000000000000000000000000000000000000081526004016103d0906129e6565b60405180910390fd5b6000609a60008581526020019081526020016000209050600115158160060160009054906101000a900460ff16151514610448576040517f08c379a000000000000000000000000000000000000000000000000000000000815260040161043f90612a78565b60405180910390fd5b8060010160009054906101000a900473ffffffffffffffffffffffffffffffffffffffff1673ffffffffffffffffffffffffffffffffffffffff166342842e0e333084600201546040518463ffffffff1660e01b81526004016104ad93929190612a98565b600060405180830381600087803b1580156104c757600080fd5b505af11580156104db573d6000803e3d6000fd5b50505050338160030160006101000a81548173ffffffffffffffffffffffffffffffffffffffff021916908373ffffffffffffffffffffffffffffffffffffffff160217905550308160040160006101000a81548173ffffffffffffffffffffffffffffffffffffffff021916908373ffffffffffffffffffffffffffffffffffffffff16021790555082816005018190555060008160060160006101000a81548160ff02191690831515021790555080600201548160010160009054906101000a900473ffffffffffffffffffffffffffffffffffffffff1673ffffffffffffffffffffffffffffffffffffffff16857faaaca05e4ef696e0923a96df9fc611222be8b1a89ef64396dcf49cfa56d3247d8460030160009054906101000a900473ffffffffffffffffffffffffffffffffffffffff168560040160009054906101000a900473ffffffffffffffffffffffffffffffffffffffff1686600501548760060160009054906101000a900460ff1660405161065e9493929190612b3d565b60405180910390a450505050565b61067461220c565b60006106806098611f32565b90506000600190505b8181116108235783609a600083815260200190815260200160002060000154141561081057609a60008281526020019081526020016000206040518060e0016040529081600082015481526020016001820160009054906101000a900473ffffffffffffffffffffffffffffffffffffffff1673ffffffffffffffffffffffffffffffffffffffff1673ffffffffffffffffffffffffffffffffffffffff168152602001600282015481526020016003820160009054906101000a900473ffffffffffffffffffffffffffffffffffffffff1673ffffffffffffffffffffffffffffffffffffffff1673ffffffffffffffffffffffffffffffffffffffff1681526020016004820160009054906101000a900473ffffffffffffffffffffffffffffffffffffffff1673ffffffffffffffffffffffffffffffffffffffff1673ffffffffffffffffffffffffffffffffffffffff168152602001600582015481526020016006820160009054906101000a900460ff1615151515815250509250505061085f565b808061081b90612bb1565b915050610689565b506040517f08c379a000000000000000000000000000000000000000000000000000000000815260040161085690612c6c565b60405180910390fd5b919050565b606060006108726098611f32565b9050600080600190505b82811161090f573373ffffffffffffffffffffffffffffffffffffffff16609a600083815260200190815260200160002060030160009054906101000a900473ffffffffffffffffffffffffffffffffffffffff1673ffffffffffffffffffffffffffffffffffffffff1614156108fc5781806108f890612bb1565b9250505b808061090790612bb1565b91505061087c565b5060008167ffffffffffffffff81111561092c5761092b612350565b5b60405190808252806020026020018201604052801561096557816020015b61095261220c565b81526020019060019003908161094a5790505b509050600080600190505b848111610b31576000609a60008381526020019081526020016000206000015490506000609a60008381526020019081526020016000209050806040518060e0016040529081600082015481526020016001820160009054906101000a900473ffffffffffffffffffffffffffffffffffffffff1673ffffffffffffffffffffffffffffffffffffffff1673ffffffffffffffffffffffffffffffffffffffff168152602001600282015481526020016003820160009054906101000a900473ffffffffffffffffffffffffffffffffffffffff1673ffffffffffffffffffffffffffffffffffffffff1673ffffffffffffffffffffffffffffffffffffffff1681526020016004820160009054906101000a900473ffffffffffffffffffffffffffffffffffffffff1673ffffffffffffffffffffffffffffffffffffffff1673ffffffffffffffffffffffffffffffffffffffff168152602001600582015481526020016006820160009054906101000a900460ff161515151581525050858581518110610b0357610b02612c8c565b5b60200260200101819052508380610b1990612bb1565b94505050508080610b2990612bb1565b915050610970565b508194505050505090565b60606000610b4a6098611f32565b9050600080600190505b828111610be7573373ffffffffffffffffffffffffffffffffffffffff16609a600083815260200190815260200160002060040160009054906101000a900473ffffffffffffffffffffffffffffffffffffffff1673ffffffffffffffffffffffffffffffffffffffff161415610bd4578180610bd090612bb1565b9250505b8080610bdf90612bb1565b915050610b54565b5060008167ffffffffffffffff811115610c0457610c03612350565b5b604051908082528060200260200182016040528015610c3d57816020015b610c2a61220c565b815260200190600190039081610c225790505b509050600080600190505b848111610e74576000609a60008381526020019081526020016000206000015490503373ffffffffffffffffffffffffffffffffffffffff16609a600083815260200190815260200160002060040160009054906101000a900473ffffffffffffffffffffffffffffffffffffffff1673ffffffffffffffffffffffffffffffffffffffff161415610e60576000609a60008381526020019081526020016000209050806040518060e0016040529081600082015481526020016001820160009054906101000a900473ffffffffffffffffffffffffffffffffffffffff1673ffffffffffffffffffffffffffffffffffffffff1673ffffffffffffffffffffffffffffffffffffffff168152602001600282015481526020016003820160009054906101000a900473ffffffffffffffffffffffffffffffffffffffff1673ffffffffffffffffffffffffffffffffffffffff1673ffffffffffffffffffffffffffffffffffffffff1681526020016004820160009054906101000a900473ffffffffffffffffffffffffffffffffffffffff1673ffffffffffffffffffffffffffffffffffffffff1673ffffffffffffffffffffffffffffffffffffffff168152602001600582015481526020016006820160009054906101000a900460ff161515151581525050858581518110610e4557610e44612c8c565b5b60200260200101819052508380610e5b90612bb1565b945050505b508080610e6c90612bb1565b915050610c48565b508194505050505090565b60026001541415610ec5576040517f08c379a0000000000000000000000000000000000000000000000000000000008152600401610ebc90612d07565b60405180910390fd5b60026001819055508060008111610f11576040517f08c379a0000000000000000000000000000000000000000000000000000000008152600401610f0890612954565b60405180910390fd5b6099543414610f55576040517f08c379a0000000000000000000000000000000000000000000000000000000008152600401610f4c906129e6565b60405180910390fd5b610f5f6098611f40565b6000610f6b6098611f32565b90508473ffffffffffffffffffffffffffffffffffffffff166342842e0e3330876040518463ffffffff1660e01b8152600401610faa93929190612a98565b600060405180830381600087803b158015610fc457600080fd5b505af1158015610fd8573d6000803e3d6000fd5b505050506040518060e001604052808281526020018673ffffffffffffffffffffffffffffffffffffffff1681526020018581526020013373ffffffffffffffffffffffffffffffffffffffff1681526020013073ffffffffffffffffffffffffffffffffffffffff16815260200184815260200160001515815250609a60008381526020019081526020016000206000820151816000015560208201518160010160006101000a81548173ffffffffffffffffffffffffffffffffffffffff021916908373ffffffffffffffffffffffffffffffffffffffff1602179055506040820151816002015560608201518160030160006101000a81548173ffffffffffffffffffffffffffffffffffffffff021916908373ffffffffffffffffffffffffffffffffffffffff16021790555060808201518160040160006101000a81548173ffffffffffffffffffffffffffffffffffffffff021916908373ffffffffffffffffffffffffffffffffffffffff16021790555060a0820151816005015560c08201518160060160006101000a81548160ff021916908315150217905550905050838573ffffffffffffffffffffffffffffffffffffffff16827f045dfa01dcba2b36aba1d3dc4a874f4b0c5d2fbeb8d2c4b34a7d88c8d8f929d133308860006040516111cc9493929190612d27565b60405180910390a4505060018081905550505050565b6111ea611f56565b73ffffffffffffffffffffffffffffffffffffffff16611208611a3f565b73ffffffffffffffffffffffffffffffffffffffff161461125e576040517f08c379a000000000000000000000000000000000000000000000000000000000815260040161125590612db8565b60405180910390fd5b6112686000611f5e565b565b606060006112786098611f32565b9050600080600190505b828111611315573073ffffffffffffffffffffffffffffffffffffffff16609a600083815260200190815260200160002060040160009054906101000a900473ffffffffffffffffffffffffffffffffffffffff1673ffffffffffffffffffffffffffffffffffffffff1614156113025781806112fe90612bb1565b9250505b808061130d90612bb1565b915050611282565b5060008167ffffffffffffffff81111561133257611331612350565b5b60405190808252806020026020018201604052801561136b57816020015b61135861220c565b8152602001906001900390816113505790505b509050600080600190505b8481116115a2573073ffffffffffffffffffffffffffffffffffffffff16609a600083815260200190815260200160002060040160009054906101000a900473ffffffffffffffffffffffffffffffffffffffff1673ffffffffffffffffffffffffffffffffffffffff16141561158f576000609a60008381526020019081526020016000206000015490506000609a60008381526020019081526020016000209050806040518060e0016040529081600082015481526020016001820160009054906101000a900473ffffffffffffffffffffffffffffffffffffffff1673ffffffffffffffffffffffffffffffffffffffff1673ffffffffffffffffffffffffffffffffffffffff168152602001600282015481526020016003820160009054906101000a900473ffffffffffffffffffffffffffffffffffffffff1673ffffffffffffffffffffffffffffffffffffffff1673ffffffffffffffffffffffffffffffffffffffff1681526020016004820160009054906101000a900473ffffffffffffffffffffffffffffffffffffffff1673ffffffffffffffffffffffffffffffffffffffff1673ffffffffffffffffffffffffffffffffffffffff168152602001600582015481526020016006820160009054906101000a900460ff16151515158152505085858151811061157357611572612c8c565b5b6020026020010181905250838061158990612bb1565b94505050505b808061159a90612bb1565b915050611376565b508194505050505090565b600060019054906101000a900460ff166115d55760008054906101000a900460ff16156115de565b6115dd612024565b5b61161d576040517f08c379a000000000000000000000000000000000000000000000000000000000815260040161161490612e4a565b60405180910390fd5b60008060019054906101000a900460ff16159050801561166d576001600060016101000a81548160ff02191690831515021790555060016000806101000a81548160ff0219169083151502179055505b611675612035565b61167d61208e565b609760009054906101000a900460ff16156116cd576040517f08c379a00000000000000000000000000000000000000000000000000000000081526004016116c490612edc565b60405180910390fd5b6001609760006101000a81548160ff0219169083151502179055506611c37937e0800060998190555080156117175760008060016101000a81548160ff0219169083151502179055505b50565b60026001541415611760576040517f08c379a000000000000000000000000000000000000000000000000000000000815260040161175790612d07565b60405180910390fd5b60026001819055506000609a60008381526020019081526020016000206005015490508034146117c5576040517f08c379a00000000000000000000000000000000000000000000000000000000081526004016117bc90612f94565b60405180910390fd5b6000609a600084815260200190815260200160002090506000816002015490508160010160009054906101000a900473ffffffffffffffffffffffffffffffffffffffff1673ffffffffffffffffffffffffffffffffffffffff166342842e0e3033846040518463ffffffff1660e01b815260040161184693929190612a98565b600060405180830381600087803b15801561186057600080fd5b505af1158015611874573d6000803e3d6000fd5b505050508160030160009054906101000a900473ffffffffffffffffffffffffffffffffffffffff1673ffffffffffffffffffffffffffffffffffffffff166108fc349081150290604051600060405180830381858888f193505050501580156118e2573d6000803e3d6000fd5b50338260040160006101000a81548173ffffffffffffffffffffffffffffffffffffffff021916908373ffffffffffffffffffffffffffffffffffffffff16021790555060018260060160006101000a81548160ff02191690831515021790555061194b611a3f565b73ffffffffffffffffffffffffffffffffffffffff166108fc6099549081150290604051600060405180830381858888f19350505050158015611992573d6000803e3d6000fd5b50808260010160009054906101000a900473ffffffffffffffffffffffffffffffffffffffff1673ffffffffffffffffffffffffffffffffffffffff16857f3dab8f12b912ccfa1d206978e44d147e18ecd600066bd6978e8e3fec8cb6d9d88560030160009054906101000a900473ffffffffffffffffffffffffffffffffffffffff1633886001604051611a2a9493929190612fb4565b60405180910390a45050506001808190555050565b6000606560009054906101000a900473ffffffffffffffffffffffffffffffffffffffff16905090565b60606000611a776098611f32565b9050600080600190505b828111611b13573073ffffffffffffffffffffffffffffffffffffffff16609a600083815260200190815260200160002060040160009054906101000a900473ffffffffffffffffffffffffffffffffffffffff1673ffffffffffffffffffffffffffffffffffffffff1614611b00578180611afc90612bb1565b9250505b8080611b0b90612bb1565b915050611a81565b5060008167ffffffffffffffff811115611b3057611b2f612350565b5b604051908082528060200260200182016040528015611b6957816020015b611b5661220c565b815260200190600190039081611b4e5790505b509050600080600190505b848111611d9f573073ffffffffffffffffffffffffffffffffffffffff16609a600083815260200190815260200160002060040160009054906101000a900473ffffffffffffffffffffffffffffffffffffffff1673ffffffffffffffffffffffffffffffffffffffff1614611d8c576000609a60008381526020019081526020016000206000015490506000609a60008381526020019081526020016000209050806040518060e0016040529081600082015481526020016001820160009054906101000a900473ffffffffffffffffffffffffffffffffffffffff1673ffffffffffffffffffffffffffffffffffffffff1673ffffffffffffffffffffffffffffffffffffffff168152602001600282015481526020016003820160009054906101000a900473ffffffffffffffffffffffffffffffffffffffff1673ffffffffffffffffffffffffffffffffffffffff1673ffffffffffffffffffffffffffffffffffffffff1681526020016004820160009054906101000a900473ffffffffffffffffffffffffffffffffffffffff1673ffffffffffffffffffffffffffffffffffffffff1673ffffffffffffffffffffffffffffffffffffffff168152602001600582015481526020016006820160009054906101000a900460ff161515151581525050858581518110611d7057611d6f612c8c565b5b60200260200101819052508380611d8690612bb1565b94505050505b8080611d9790612bb1565b915050611b74565b508194505050505090565b6000609954905090565b611dbc611f56565b73ffffffffffffffffffffffffffffffffffffffff16611dda611a3f565b73ffffffffffffffffffffffffffffffffffffffff1614611e30576040517f08c379a0000000000000000000000000000000000000000000000000000000008152600401611e2790612db8565b60405180910390fd5b600073ffffffffffffffffffffffffffffffffffffffff168173ffffffffffffffffffffffffffffffffffffffff161415611ea0576040517f08c379a0000000000000000000000000000000000000000000000000000000008152600401611e979061306b565b60405180910390fd5b611ea981611f5e565b50565b611eb4611f56565b73ffffffffffffffffffffffffffffffffffffffff16611ed2611a3f565b73ffffffffffffffffffffffffffffffffffffffff1614611f28576040517f08c379a0000000000000000000000000000000000000000000000000000000008152600401611f1f90612db8565b60405180910390fd5b8060998190555050565b600081600001549050919050565b6001816000016000828254019250508190555050565b600033905090565b6000606560009054906101000a900473ffffffffffffffffffffffffffffffffffffffff16905081606560006101000a81548173ffffffffffffffffffffffffffffffffffffffff021916908373ffffffffffffffffffffffffffffffffffffffff1602179055508173ffffffffffffffffffffffffffffffffffffffff168173ffffffffffffffffffffffffffffffffffffffff167f8be0079c531659141344cd1fd0a4f28419497f9722a3daafe3b4186f6b6457e060405160405180910390a35050565b600061202f306120ef565b15905090565b600060019054906101000a900460ff16612084576040517f08c379a000000000000000000000000000000000000000000000000000000000815260040161207b906130fd565b60405180910390fd5b61208c612102565b565b600060019054906101000a900460ff166120dd576040517f08c379a00000000000000000000000000000000000000000000000000000000081526004016120d4906130fd565b60405180910390fd5b6120e561215a565b6120ed6121ab565b565b600080823b905060008111915050919050565b600060019054906101000a900460ff16612151576040517f08c379a0000000000000000000000000000000000000000000000000000000008152600401612148906130fd565b60405180910390fd5b60018081905550565b600060019054906101000a900460ff166121a9576040517f08c379a00000000000000000000000000000000000000000000000000000000081526004016121a0906130fd565b60405180910390fd5b565b600060019054906101000a900460ff166121fa576040517f08c379a00000000000000000000000000000000000000000000000000000000081526004016121f1906130fd565b60405180910390fd5b61220a612205611f56565b611f5e565b565b6040518060e0016040528060008152602001600073ffffffffffffffffffffffffffffffffffffffff16815260200160008152602001600073ffffffffffffffffffffffffffffffffffffffff168152602001600073ffffffffffffffffffffffffffffffffffffffff168152602001600081526020016000151581525090565b6000604051905090565b600080fd5b600080fd5b600073ffffffffffffffffffffffffffffffffffffffff82169050919050565b60006122cc826122a1565b9050919050565b6122dc816122c1565b81146122e757600080fd5b50565b6000813590506122f9816122d3565b92915050565b6000819050919050565b612312816122ff565b811461231d57600080fd5b50565b60008135905061232f81612309565b92915050565b600080fd5b600080fd5b6000601f19601f8301169050919050565b7f4e487b7100000000000000000000000000000000000000000000000000000000600052604160045260246000fd5b6123888261233f565b810181811067ffffffffffffffff821117156123a7576123a6612350565b5b80604052505050565b60006123ba61228d565b90506123c6828261237f565b919050565b600067ffffffffffffffff8211156123e6576123e5612350565b5b6123ef8261233f565b9050602081019050919050565b82818337600083830152505050565b600061241e612419846123cb565b6123b0565b90508281526020810184848401111561243a5761243961233a565b5b6124458482856123fc565b509392505050565b600082601f83011261246257612461612335565b5b813561247284826020860161240b565b91505092915050565b6000806000806080858703121561249557612494612297565b5b60006124a3878288016122ea565b94505060206124b4878288016122ea565b93505060406124c587828801612320565b925050606085013567ffffffffffffffff8111156124e6576124e561229c565b5b6124f28782880161244d565b91505092959194509250565b60007fffffffff0000000000000000000000000000000000000000000000000000000082169050919050565b612533816124fe565b82525050565b600060208201905061254e600083018461252a565b92915050565b6000806040838503121561256b5761256a612297565b5b600061257985828601612320565b925050602061258a85828601612320565b9150509250929050565b6000602082840312156125aa576125a9612297565b5b60006125b884828501612320565b91505092915050565b6125ca816122ff565b82525050565b6125d9816122c1565b82525050565b60006125ea826122a1565b9050919050565b6125fa816125df565b82525050565b60008115159050919050565b61261581612600565b82525050565b60e08201600082015161263160008501826125c1565b50602082015161264460208501826125d0565b50604082015161265760408501826125c1565b50606082015161266a60608501826125f1565b50608082015161267d60808501826125f1565b5060a082015161269060a08501826125c1565b5060c08201516126a360c085018261260c565b50505050565b600060e0820190506126be600083018461261b565b92915050565b600081519050919050565b600082825260208201905092915050565b6000819050602082019050919050565b60e08201600082015161270660008501826125c1565b50602082015161271960208501826125d0565b50604082015161272c60408501826125c1565b50606082015161273f60608501826125f1565b50608082015161275260808501826125f1565b5060a082015161276560a08501826125c1565b5060c082015161277860c085018261260c565b50505050565b600061278a83836126f0565b60e08301905092915050565b6000602082019050919050565b60006127ae826126c4565b6127b881856126cf565b93506127c3836126e0565b8060005b838110156127f45781516127db888261277e565b97506127e683612796565b9250506001810190506127c7565b5085935050505092915050565b6000602082019050818103600083015261281b81846127a3565b905092915050565b60008060006060848603121561283c5761283b612297565b5b600061284a868287016122ea565b935050602061285b86828701612320565b925050604061286c86828701612320565b9150509250925092565b61287f816122c1565b82525050565b600060208201905061289a6000830184612876565b92915050565b6128a9816122ff565b82525050565b60006020820190506128c460008301846128a0565b92915050565b6000602082840312156128e0576128df612297565b5b60006128ee848285016122ea565b91505092915050565b600082825260208201905092915050565b7f5072696365206d7573742062652061746c656173742031207765692e00000000600082015250565b600061293e601c836128f7565b915061294982612908565b602082019050919050565b6000602082019050818103600083015261296d81612931565b9050919050565b7f596f75206d757374207061792074686520636f7272656374206c697374696e6760008201527f206665652e000000000000000000000000000000000000000000000000000000602082015250565b60006129d06025836128f7565b91506129db82612974565b604082019050919050565b600060208201905081810360008301526129ff816129c3565b9050919050565b7f54686973206974656d2063616e6e6f742062652072656c69737465642061732060008201527f6974206861736e2774206265656e20736f6c64207965742e0000000000000000602082015250565b6000612a626038836128f7565b9150612a6d82612a06565b604082019050919050565b60006020820190508181036000830152612a9181612a55565b9050919050565b6000606082019050612aad6000830186612876565b612aba6020830185612876565b612ac760408301846128a0565b949350505050565b6000819050919050565b6000612af4612aef612aea846122a1565b612acf565b6122a1565b9050919050565b6000612b0682612ad9565b9050919050565b6000612b1882612afb565b9050919050565b612b2881612b0d565b82525050565b612b3781612600565b82525050565b6000608082019050612b526000830187612b1f565b612b5f6020830186612b1f565b612b6c60408301856128a0565b612b796060830184612b2e565b95945050505050565b7f4e487b7100000000000000000000000000000000000000000000000000000000600052601160045260246000fd5b6000612bbc826122ff565b91507fffffffffffffffffffffffffffffffffffffffffffffffffffffffffffffffff821415612bef57612bee612b82565b5b600182019050919050565b7f546865206d61726b6574206974656d207769746820746861742069642077617360008201527f206e6f7420666f756e642e000000000000000000000000000000000000000000602082015250565b6000612c56602b836128f7565b9150612c6182612bfa565b604082019050919050565b60006020820190508181036000830152612c8581612c49565b9050919050565b7f4e487b7100000000000000000000000000000000000000000000000000000000600052603260045260246000fd5b7f5265656e7472616e637947756172643a207265656e7472616e742063616c6c00600082015250565b6000612cf1601f836128f7565b9150612cfc82612cbb565b602082019050919050565b60006020820190508181036000830152612d2081612ce4565b9050919050565b6000608082019050612d3c6000830187612876565b612d496020830186612876565b612d5660408301856128a0565b612d636060830184612b2e565b95945050505050565b7f4f776e61626c653a2063616c6c6572206973206e6f7420746865206f776e6572600082015250565b6000612da26020836128f7565b9150612dad82612d6c565b602082019050919050565b60006020820190508181036000830152612dd181612d95565b9050919050565b7f496e697469616c697a61626c653a20636f6e747261637420697320616c72656160008201527f647920696e697469616c697a6564000000000000000000000000000000000000602082015250565b6000612e34602e836128f7565b9150612e3f82612dd8565b604082019050919050565b60006020820190508181036000830152612e6381612e27565b9050919050565b7f436f6e747261637420696e7374616e63652068617320616c726561647920626560008201527f656e20696e697469616c697a6564000000000000000000000000000000000000602082015250565b6000612ec6602e836128f7565b9150612ed182612e6a565b604082019050919050565b60006020820190508181036000830152612ef581612eb9565b9050919050565b7f596f75206d7573742070617920746865207072696365206f6620746865206c6960008201527f73746564206974656d20696e206f7264657220746f207075726368617365207460208201527f686520746f6b656e2e0000000000000000000000000000000000000000000000604082015250565b6000612f7e6049836128f7565b9150612f8982612efc565b606082019050919050565b60006020820190508181036000830152612fad81612f71565b9050919050565b6000608082019050612fc96000830187612b1f565b612fd66020830186612876565b612fe360408301856128a0565b612ff06060830184612b2e565b95945050505050565b7f4f776e61626c653a206e6577206f776e657220697320746865207a65726f206160008201527f6464726573730000000000000000000000000000000000000000000000000000602082015250565b60006130556026836128f7565b915061306082612ff9565b604082019050919050565b6000602082019050818103600083015261308481613048565b9050919050565b7f496e697469616c697a61626c653a20636f6e7472616374206973206e6f74206960008201527f6e697469616c697a696e67000000000000000000000000000000000000000000602082015250565b60006130e7602b836128f7565b91506130f28261308b565b604082019050919050565b60006020820190508181036000830152613116816130da565b905091905056fea2646970667358221220ef31caeca37ed0db752d3dcd2ede81184a7c27c207a035723de0038ead00fe1464736f6c634300080b0033",
  "immutableReferences": {},
  "source": "// SPDX-License-Identifier: MIT\npragma solidity ^0.8.11;\n\nimport \"@openzeppelin/contracts-upgradeable/proxy/utils/Initializable.sol\";\nimport \"@openzeppelin/contracts-upgradeable/security/ReentrancyGuardUpgradeable.sol\";\nimport \"@openzeppelin/contracts-upgradeable/access/OwnableUpgradeable.sol\";\nimport \"@openzeppelin/contracts-upgradeable/token/ERC721/IERC721ReceiverUpgradeable.sol\";\nimport \"@openzeppelin/contracts/token/ERC721/IERC721.sol\";\nimport \"@openzeppelin/contracts/utils/Counters.sol\";\n\nimport \"./HexColour.sol\";\n\ncontract NFTMarketPlace is Initializable, ReentrancyGuardUpgradeable, OwnableUpgradeable, IERC721ReceiverUpgradeable {\n  using Counters for Counters.Counter;\n\n  bool private initialized;\n\n  Counters.Counter private _itemIds;\n\n  uint private _listingFee;\n\n  struct MarketItem {\n    uint itemId;\n    address nftContractAddress;\n    uint tokenId;\n    address payable seller;\n    address payable owner;\n    uint price;\n    bool sold;\n  }\n\n  mapping (uint => MarketItem) private _idToMarketItem;\n\n  event MarketItemCreated(\n    uint indexed itemId,\n    address indexed nftContractAddress,\n    uint indexed tokenId,\n    address seller, \n    address owner,\n    uint price,\n    bool sold \n  );\n\n  event MarketItemPurchased(\n    uint indexed itemId,\n    address indexed nftContractAddress,\n    uint indexed tokenId,\n    address seller, \n    address owner,\n    uint price,\n    bool sold \n  );\n\n  event MarketItemRelisted(\n    uint indexed itemId,\n    address indexed nftContractAddress,\n    uint indexed tokenId,\n    address seller, \n    address owner,\n    uint price,\n    bool sold \n  );\n\n  // Constructor for upgradeable contracts\n  function initialize() public initializer {\n    __ReentrancyGuard_init();\n    __Ownable_init();\n    require(!initialized, \"Contract instance has already been initialized\");\n    initialized = true;\n    _listingFee = 0.005 ether;\n  }\n\n  function onERC721Received(address, address, uint256, bytes memory) public virtual override returns (bytes4) {\n    return this.onERC721Received.selector;\n  }\n\n  function updateListingFee(uint newListingFee) public onlyOwner {\n    _listingFee = newListingFee;\n  }\n\n  function getListingFee() public view returns (uint) {\n    return _listingFee;\n  }\n\n  modifier onlyIfPriceIsGreaterThanZero(uint price) {\n    require(price > 0, \"Price must be atleast 1 wei.\");\n    _;\n  }\n\n  modifier onlyIfListingFeeIsProvided() {\n    require(msg.value == _listingFee, \"You must pay the correct listing fee.\");\n    _;\n  }\n\n  function createMarketItem(address nftContractAddress, uint tokenId, uint price) public payable nonReentrant onlyIfPriceIsGreaterThanZero(price) onlyIfListingFeeIsProvided {\n    _itemIds.increment();\n    uint itemId = _itemIds.current();\n\n    // Transfer the NFT from the user to the marketplace\n    IERC721(nftContractAddress).safeTransferFrom(msg.sender, address(this), tokenId);\n\n    _idToMarketItem[itemId] = MarketItem(\n      itemId,\n      nftContractAddress,\n      tokenId,\n      payable(msg.sender),\n      payable(address(this)),\n      price,\n      false\n    );\n\n    emit MarketItemCreated(\n      itemId, \n      nftContractAddress, \n      tokenId, \n      msg.sender, \n      address(this), \n      price, \n      false\n    );\n  }\n\n  function purchaseMarketItem(uint itemId) public payable nonReentrant {\n    uint price = _idToMarketItem[itemId].price;\n    require(msg.value == price, \"You must pay the price of the listed item in order to purchase the token.\");\n\n    MarketItem storage itemToPurchase = _idToMarketItem[itemId];\n    uint tokenId = itemToPurchase.tokenId;\n\n    // Transfer the NFT from the marketplace to the buyer\n    IERC721(itemToPurchase.nftContractAddress).safeTransferFrom(address(this), msg.sender, tokenId);\n\n    itemToPurchase.seller.transfer(msg.value);\n    itemToPurchase.owner = payable(msg.sender);\n    itemToPurchase.sold = true;\n\n    payable(owner()).transfer(_listingFee);\n\n    emit MarketItemPurchased(\n      itemId, \n      itemToPurchase.nftContractAddress, \n      tokenId, \n      itemToPurchase.seller, \n      msg.sender, \n      price, \n      true\n    );\n  }\n\n  function relistMarketItem(uint itemId, uint newPrice) public payable onlyIfPriceIsGreaterThanZero(newPrice) onlyIfListingFeeIsProvided {\n    MarketItem storage marketItemToRelist = _idToMarketItem[itemId];\n    require(marketItemToRelist.sold == true, \"This item cannot be relisted as it hasn't been sold yet.\");\n\n    IERC721(marketItemToRelist.nftContractAddress).safeTransferFrom(msg.sender, address(this), marketItemToRelist.tokenId);\n\n    marketItemToRelist.seller = payable(msg.sender);\n    marketItemToRelist.owner = payable(address(this));\n    marketItemToRelist.price = newPrice;\n    marketItemToRelist.sold = false;\n\n    emit MarketItemRelisted(\n      itemId, \n      marketItemToRelist.nftContractAddress, \n      marketItemToRelist.tokenId, \n      marketItemToRelist.seller, \n      marketItemToRelist.owner, \n      marketItemToRelist.price, \n      marketItemToRelist.sold\n    );\n  }\n\n  function fetchMarketItem(uint itemId) public view returns (MarketItem memory) {\n    uint totalItemCount = _itemIds.current();\n\n    for (uint256 i = 1; i <= totalItemCount; i++) {\n      if (_idToMarketItem[i].itemId == itemId) {\n        return _idToMarketItem[i];\n      }\n    }\n\n    revert(\"The market item with that id was not found.\");\n  }\n\n  function fetchUnsoldMarketItems() public view returns (MarketItem[] memory) {\n    uint totalItemCount = _itemIds.current();\n    uint unsoldItemCount = 0;\n\n    for (uint256 i = 1; i <= totalItemCount; i++) {\n      if (_idToMarketItem[i].owner == address(this)) {\n        unsoldItemCount++;\n      }\n    }\n\n    MarketItem[] memory unsoldItems = new MarketItem[](unsoldItemCount);\n    uint currentIndex = 0;\n\n    for (uint256 i = 1; i <= totalItemCount; i++) {\n      if (_idToMarketItem[i].owner == address(this)) {\n        uint currentId = _idToMarketItem[i].itemId;\n        MarketItem storage currentItem = _idToMarketItem[currentId];\n        unsoldItems[currentIndex] = currentItem;\n        currentIndex++;\n      }\n    }\n\n    return unsoldItems;\n  }\n\n  function fetchSoldMarketItems() public view returns (MarketItem[] memory) {\n    uint totalItemCount = _itemIds.current();\n\n    uint soldItemCount = 0;\n\n    for (uint256 i = 1; i <= totalItemCount; i++) {\n      if (_idToMarketItem[i].owner != address(this)) {\n        soldItemCount++;\n      }\n    }\n\n    MarketItem[] memory soldItems = new MarketItem[](soldItemCount);\n    uint currentIndex = 0;\n\n    for (uint256 i = 1; i <= totalItemCount; i++) {\n      if (_idToMarketItem[i].owner != address(this)) {\n        uint currentId = _idToMarketItem[i].itemId;\n        MarketItem storage currentItem = _idToMarketItem[currentId];\n        soldItems[currentIndex] = currentItem;\n        currentIndex++;\n      }\n    }\n\n    return soldItems;\n  }\n\n  function fetchNFTsOfOwner() public view returns (MarketItem[] memory) {\n    uint totalItemCount = _itemIds.current();\n    uint ownerItemCount = 0;\n\n    for (uint256 i = 1; i <= totalItemCount; i++) {\n      if(_idToMarketItem[i].owner == msg.sender) {\n        ownerItemCount++;\n      }\n    }\n\n    MarketItem[] memory items = new MarketItem[](ownerItemCount);\n\n    uint currentIndex = 0;\n\n    for (uint256 i = 1; i <= totalItemCount; i++) {\n      uint currentId = _idToMarketItem[i].itemId;\n\n      if (_idToMarketItem[currentId].owner == msg.sender) {\n        MarketItem storage ownedItem = _idToMarketItem[currentId];\n        items[currentIndex] = ownedItem;\n        currentIndex++;\n      }\n    }\n\n    return items;\n  }\n\n  function fetchItemsCreatedBySeller() public view returns (MarketItem[] memory) {\n    uint totalItemCount = _itemIds.current();\n    uint sellerItemCount = 0;\n\n    for (uint256 i = 1; i <= totalItemCount; i++) {\n      if(_idToMarketItem[i].seller == msg.sender) {\n        sellerItemCount++;\n      }\n    }\n\n    MarketItem[] memory items = new MarketItem[](sellerItemCount);\n\n    uint currentIndex = 0;\n\n    for (uint256 i = 1; i <= totalItemCount; i++) {\n      uint currentId = _idToMarketItem[i].itemId;\n      MarketItem storage currentItem = _idToMarketItem[currentId];\n      items[currentIndex] = currentItem;\n      currentIndex++;\n    }\n\n    return items;\n  }\n}\n",
  "sourcePath": "/workspaces/crypto-colours/blockchain/contracts/NFTMarketPlace.sol",
  "compiler": {
    "name": "solc",
    "version": "0.8.11+commit.d7f03943.Emscripten.clang"
  },
  "schemaVersion": "3.4.4",
  "updatedAt": "2022-01-10T12:38:23.980Z",
  "devdoc": {
    "kind": "dev",
    "methods": {
      "owner()": {
        "details": "Returns the address of the current owner."
      },
      "renounceOwnership()": {
        "details": "Leaves the contract without owner. It will not be possible to call `onlyOwner` functions anymore. Can only be called by the current owner. NOTE: Renouncing ownership will leave the contract without an owner, thereby removing any functionality that is only available to the owner."
      },
      "transferOwnership(address)": {
        "details": "Transfers ownership of the contract to a new account (`newOwner`). Can only be called by the current owner."
      }
    },
    "version": 1
  },
  "userdoc": {
    "kind": "user",
    "methods": {},
    "version": 1
  }
}